:020000040000fa
:080000000002040000000000f2
:020000040000fa
:100400000f4e25000eff28000e018800000000009e
:100410000c00070000292500110020000f00070034
:10042000000020000000e000020032000000020096
:1004300000000000fa390200010000000040da006c
:100440000000fe00e07424000000e0000200320022
:10045000002020009001880000000600a102880012
:10046000800078000000eb001a003700e2804000b6
:1004700054a0b4009101ba00e280400054a0b4003e
:100480009102ba00e280400054a0b4000002eb00e8
:10049000472bde00f507b200a6018800602ce100c2
:1004a00008003a000049eb000201e80002003900b0
:1004b0003420ec0002f0a0008301e900f9ff3e00c7
:1004c000040037006128e100010032000082eb00e7
:1004d000040007001101ba000200e000e3ff3a0047
:1004e0000000060004d0a300e20f49001c00390000
:1004f000810278003549ba000201e80002003900a3
:100500003420ec0002f0a0008301e9000f0032006b
:100510002549ba000201e800020039003420ec004d
:1005200002f0a0008301e900080032000400e000ae
:100530000600320015c9ba000201e80002003900c5
:100540003420ec0002f0a0008301e9008180e80083
:1005500054a0b4000300e000e2ff3a0000000600ef
:100560009102ba00055978008301e900f7ff3200d3
:10057000c82ade00055978008301e900f3ff320044
:100580000400e000f1ff320011d9ba00eeff37009d
:10059000bee3040000000000f2e3040000000000dd
:1005a00002e804000000000060e804000000000011
:1005b00074e804000000000078e904000000000076
:1005c0003ae4040000000000c0e404000000000061
:1005d0009aea040000000000bceb040000000000e8
:1005e0004eed04000000000062ec0400000000007a
:1005f000a2ee0400000000001cef04000000000058
:100600006aef040000000000bcf0040000000000dd
:100610000cf1040000000000c8ed04000000000020
:1006200078f404000000000060f104000000000005
:100630000ef504000000000072f504000000000048
:10064000b0f7040000000000aaf60400000000005b
:10065000acf50400000000002ef8040000000000cb
:1006600020fa0400000000000040da000000fe0054
:1006700003f0a200889fbe008a9fbe008c1f7800f6
:1006800052010700590133006450e1004f0032006d
:100690006420e1005200320003826c0007003b003e
:1006a0000905d0000306d000820f54000c065d003f
:1006b0000200390002003200890178000306780048
:1006c0008582550004003d000003fd008103fd000c
:1006d0008502ea008b854200840f720002003b0015
:1006e00060001000e08018006011b8000005eb0009
:1006f0007a28e1000a00390006007800c75ddd00b5
:10070000f707b200878075002d00370082817100e5
:100710000a017800610560008180d1000080d3006b
:100720008502e900f9ff3b00060440008784480089
:1007300002003b0060041400e0841c000988a30050
:10074000070032008a8171008281710061016400ba
:100750008904d1000884d3008b05e8001700370016
:100760000978a30013003a000b00e00013003400e6
:100770008b05e9000804440089844c000a44740095
:100780000978a3000d003a000b00e00007003400d8
:100790008b05e9000804440089844c0001003a00fc
:1007a0000b0020000978a300f7ff32000001eb00e6
:1007b00002003700828171000a017800c80007003a
:1007c0000cf0a70001f0a000110137006420e10047
:1007d00002003a00838f6c00110133000801be0053
:1007e0000200be000a013700889fbe008a9fbe003b
:1007f0008c1f7800f5000700fc00330003866c00b6
:100800006450e1002e0032006420e1003300320029
:100810006150e1002f0032006120e1003100320020
:1008200085855500eb07b000090020000804200072
:10083000050037000804440089844c000a00310098
:100840000603430087834b000001530081815b0056
:10085000f8ff33000203be000800a00008044400b3
:1008600089844c00f6ff3900c639dd00830173002e
:1008700001003200130020008904d1000884d30055
:100880000998a300050032000800a7000300a0009b
:100890008904d1000884d3008b05e8008904d100c5
:1008a0000884d3000001eb000281d2008c00070015
:1008b00001f0a1000cf0a70001f0a000d400370067
:1008c0006420e100d60032000801be000200be0034
:1008d000f7ff37006120e100d10032006000b8006e
:1008e000f3ff37000000200001f82700f0ff370079
:1008f000839f68000100e00002003d0060001000de
:10090000e08018000300e00002003d0060011100db
:10091000e0811900080107004f00e00002003b00e1
:1009200060001000e08018000000060014002000a5
:1009300014013700f4ff2f00120137000001be0040
:100940008d0007000470a70003f0a1006509b10045
:10095000160032000d0035006828e1000600350061
:10096000f0ff2f00f1ff27000300e00013003b0021
:1009700001002800000005000000400081804800c0
:100980008502e900fcff3a0008003700f88f4200ba
:1009900002003c008000eb00000005008100d10057
:1009a0000080d3008502e800fcff3a000300e0006d
:1009b00002003b0060001000e0801800000006000c
:1009c0000001be006c0007000470a70003f0a10046
:1009d00003f8a30013003a006509b10010003200cb
:1009e000090035006928e1000200350001002800f7
:1009f0000000050000004000818048008502e900f9
:100a0000fcff3a0000000600f88f420005003500a8
:100a10008100d1000080d3008502e800fcff3a008d
:100a2000000006008000eb0000000500889fbe006b
:100a30008a9fbe00010578000100e0000400350037
:100a400008003c000000e0002000320005003700f4
:100a500060001000e080180002003b0001f02c0054
:100a60001a0037000004be006011b8006b092000b6
:100a70000982cf00020039000882cf000441b00093
:100a8000694252000e00320008003b008281710072
:100a9000610164008904d1000884d3008b05e8005b
:100aa0000442e800f9ff3a0005003700080444005a
:100ab00089844c008b05e9000442e900fbff3a0001
:100ac000070007000af0a70001f0a0004f05be00d4
:100ad0004f04be000000060004002000a9003700fb
:100ae00081002000618055000b003d000b002000bc
:100af00061fe2f000100e1001d00340082817100c1
:100b0000610164008904d1000884d3000000e8007a
:100b1000faff3a00710020006100640003007000d9
:100b2000020060000900320061044400e0844c00cf
:100b30000988a500050032008b05e8006808e1007f
:100b400002003a008904d1000884d300f20f20008b
:100b50000258e10005003d00c75ddd00f907b20065
:100b60008980750008007800000006000bf8270057
:100b70008b00780000000500c70ade00f107b20014
:100b8000f50fb20008003200e1cf4200020032004f
:100b90000170a00024000500810f700001003200e8
:100ba0000408050044000500810f700002003a00af
:100bb000140005008502e9000000400081c04800e3
:100bc000fcff3b000170a000240005000004be00f3
:100bd000e9ff07000003be000405be000200be00de
:100be000e5ff0700844f7500000006000200be000c
:100bf0006450e100050036006420e1000200360088
:100c00000968a30001003a000800be000160a000ce
:100c10004f0678004f05be004f04be0000000600de
:100c2000f0ff2f00f1ff2700f9ff3700811f780048
:100c30000100e00002003d0060001000e0801800ac
:100c40000300e00002003d0060011100e081190096
:100c5000490007004f00e00002003b006000100068
:100c6000e080180000000600889fbe008a9fbe003a
:100c70008c1f7800d5ff0700dcff330003866c0073
:100c80006450e100240032006420e10027003200bb
:100c90006150e100220032006120e10021003200b9
:100ca0008b854200eb07b1000134b800003ab80070
:100cb0000804420089844a00013ab8000030b800b4
:100cc0008880400009014a00040033000000400011
:100cd00081804800020149008b05e900c909dd0057
:100ce000830170000100320013002000c814de00f0
:100cf0004814dd004709de001200b200c808de001b
:100d00000884700076ff070001f0a1000cf0a70036
:100d100001f0a000beff37006120e100c0ff3200fb
:100d20000801be000200be00f7ff37006150e1007d
:100d3000fcff3a00baff37006022b800060220002c
:100d40000000d0008180d2000482d2008582d200cf
:100d50000000a0000202520083825a00030031000a
:100d60000202420083824a000000a1000603e9005b
:100d7000f3ff3a0000000600efff07000400be008a
:100d800000000600889fbe008a9fbe00841f780076
:100d90008eff07004f00780011003300f0ff2f0096
:100da000838f6c0006003b00040565000a00a70065
:100db0000800370009f0a6001000200008003700e6
:100dc000820f5400838f5c00030039001000200064
:100dd00001003e000000200009f0a7000000ea002a
:100de0004f05be004f04be000000e00000000600fa
:100df0000400fa00e0bf9f00e481570081297800d9
:100e00000002eb000f0037006fb8970090407800a9
:100e10007fb89700104078000402e80080cf5000af
:100e2000040032008180fb000080fb000080500045
:100e3000070037006fb897000000e800e0bf9f0090
:100e40009309e800820f5200efff3a000000eb0028
:100e50000080fa0000000600000278008001eb002c
:100e600002003700315a78008301e800828f510078
:100e7000fcff3a0000000600000278008001eb0051
:100e800002003700015a78008301e800828f510088
:100e9000fcff3a000000060010417800b14151000b
:100ea00003003a000000e8000204e000faff3a0004
:100eb0000300fb00000006008001780000017800bc
:100ec00031407800005978000004e000fcff3a004f
:100ed0000300780000000600800078003004e00085
:100ee000feff3a00010050000000e900000006008b
:100ef000810178000002eb000c0037009040780080
:100f00000104e000030032000402e80093cf500027
:100f1000040032008180fb001380fb000080500041
:100f2000000006000000e8008301e800820f520084
:100f3000f2ff3a0000000500889fbe000004be00da
:100f40000d00370009007800e3ff0700000178007a
:100f50000800be00e6ff07000000e00002003a00c3
:100f600008007800090037009900fb000800e8003d
:100f7000ef040700000478000800e00002003200df
:100f80001804e000efff3a000000eb004f04be0041
:100f9000000006000c00fa00a0bf9f00c0bf9f0029
:100fa000cdff0700b0bf9f00f0bf9f00100c2000d6
:100fb000d0bf9f0074815700efb097006c8057003e
:100fc0002e0007000080fa0000000600889fbe0087
:100fd000000478008144780000fd2f0000004400e8
:100fe000e90f500002003e00000178000d003700bc
:100ff000080078001f0407000000e0000300320032
:101000000800780021040700000478000800780038
:10101000060407000000e0000700320090fa2f00ed
:10102000000144000980fb00800f510002003d00d8
:101030000280fb0001003700f00f20004f04be00cb
:1010400000000600881f7800e0a682003a0407002e
:1010500000047800ff0307000000e000faff3a00f8
:10106000e10f440003003200e1a68200080078008e
:10107000b70407004f04780000000600ec87470023
:10108000889fbe008a9fbe008c9fbe008e1f780086
:1010900081bf9f0002077800e0a68a008046eb002f
:1010a000040137008884fb0009007800e903070089
:1010b000800078000000e00002003200e1ff07003d
:1010c000fc00370050c2b300804f5400f0003a00db
:1010d0000fbd970020c0b300c0ef9f00d1ef9f006d
:1010e00081ef9f000300370040c0b300c0ef9f00b6
:1010f0000fbd97000fb99700b240780082bf9f00e4
:101100008184fb0090c6b30080cf500035003200d0
:1011100017003e006640500080cf50006200320051
:101120000c003e007740500080cf50002800320075
:1011300006003e000104e0009b003200a0c2b300a4
:1011400080cf50006e003a001d00370080c5b3000c
:101150001600370040c6b30080cf50002100320097
:101160006440400080cf500065003a001200370014
:1011700030c7b30080cf50001e00320007003e0091
:101180006740500080cf50001100320063404000a3
:1011900080cf50005a003a001400370050c7b30007
:1011a00080cf50000f0032006340400080cf5000dd
:1011b00053003a006500370020c0b300cbff370072
:1011c000dfe897008140e800d1ef9f00c8ff3700bb
:1011d0004fe9970080c0b300e24f5100c3ff3a00cf
:1011e000c1ff3700acc0b300590037008cc0b3005a
:1011f0005700370093ff0700dfe897000104e00085
:1012000002003a004e017800d2b79f00e0a68200ab
:10121000c903070000047800e10f4000a20032007b
:101220008fec9700120037000a85e8008abf9f0004
:10123000160037008fb897001100fb00800f540094
:10124000f9ff32005fe997000204e00003003a0072
:101250005fb0970008587800d0b79f008944e90034
:101260000a003200e0a68200b30307000004780001
:101270000800e800e10f5000040036000800780084
:10128000740307000000e000eaff3200dfe8970087
:101290000104e00087003a008d46e8005fb1970046
:1012a00001497800830037005fe897000004e00000
:1012b00003003a008d46e800ce007800d1b79f00c9
:1012c000e0a682009c030700e10f40007600320098
:1012d0005fe997000204e00003003a00dfb09700e6
:1012e00080587800d1b79f000fe997000241e900cc
:1012f00082ef9f004240a9006e003400f0ff3700eb
:101300000180fb0008fd2f0008004000e90f50009d
:101310005f003e000a0078006303070080ef9f0033
:1013200088007800030037000fb897000000e8003d
:1013300080bf9f000fb997001200fb000100400022
:10134000e90f5000f8ff360069ff37000cc1b30009
:101350003cff0700e0a68200770307000005780045
:101360000040eb00e0ef9f00d0022000800f55000e
:1013700005003a00e0a682006f0307000005780030
:1013800011c0b300e1ef9f008c4078000a007800a4
:101390000eff0700e14f40000a003a00e1a682007c
:1013a0000a007800ea0307000d04e0004b003a0051
:1013b000e0a68200300090000048a3004300320005
:1013c000480037008fed97006044b8000c81fb00a7
:1013d000030020000800be00280507000004be002e
:1013e0008c4078000a007800f8fe07000080fb00bf
:1013f0000100200008044000898448008b45e90072
:1014000007003200e0a682004b03070000057800c9
:101410008c407800edfe0700e14f4000ebff3a0002
:101420008c4078000a007800e8fe0700e14f400099
:1014300003003a00e1a682000a007800c403070016
:101440006fe997000204e00002003200600414001b
:10145000e0841c005fe897000004e00015003a00fb
:101460008d46e800cfe89700e4cf500003003a0033
:101470004e0078000888be000e0037000e81e9009b
:101480000207780012007800080878000900370089
:10149000e0a6820028030700808f54000500320078
:1014a000e10f40000b003a000d04e0000d00320097
:1014b0000a0037008fb897003144780081bf9f0041
:1014c0000804e000f7fe3a00040037000000eb00db
:1014d00005003700e1a682009d0307000d80fb0098
:1014e000010037000080eb004f0778004f06be0078
:1014f0004f05be004f04be00cf00b1000000060043
:101500000c00fa00889fbe0000047800cfb097005e
:10151000f0ff2700d0bf9f008004eb0099bf9f0021
:1015200088bf9f00a8bf9f00200c2000b0bf9f0075
:101530007881570070805700080007000fb89700a7
:10154000094878000fb89700080450000800780098
:101550004f04be000080fa0000000600fe8747002e
:10156000889fbe008a9fbe008c9fbe008e1f7800a1
:10157000f0b79f000107780082bf9f000000eb00da
:10158000a0b79f009e0237008006eb0050c2b30058
:1015900080cf5000090032000100fb00ffb097002f
:1015a00019030700e10f400095023200afb0970029
:1015b0008100e800a1b79f00910237009e407800ab
:1015c000d0c2b30080cf50000c00320007003c00b6
:1015d0006d40500080cf50000a0032006b40400048
:1015e00080cf50000e003a000800370000c3b3005f
:1015f00080cf50000a003a00060037000d30a000ee
:10160000050037000d00a000030037000d10a000fa
:10161000010037000d20a0000e07e800e7ff3700ab
:101620000d18a300010032000d00a1000d38a30029
:10163000010032000d20a1000100fb0002fd2f007f
:1016400002004000e90f50000d003e008001eb0059
:10165000c3b79f004fb29700ea20b8009e00fb007e
:101660000100400002004000c0b79f005e00fb0088
:1016700002004000e90f50000b003e00f5ff37006c
:101680008002eb00c5b79f00a0c2b30080cf50001e
:1016900005003a000fbe97004c0078008cbf9f00f9
:1016a000c0b79f000e07e8008000eb00b1b79f00b5
:1016b000e0c2b3009e4f100018003a000de0a000f9
:1016c0008e00e80064405000914f1000020032008c
:1016d000010778000c0037008fb9970043027800ab
:1016e00083bf9f00b4b79f000e87e8000b00370050
:1016f000bfb29700ea28b800010040000200400095
:10170000b0b79f000e07e8009e00fb0002fd2f000f
:1017100002804000e90f5000f5ff3600be4078001f
:10172000e1d79f00c0c6b30080cf50002200320036
:101730000f003c006940500080cf5000770032001d
:1017400004003c000104e000310232006b40500014
:101750000f00370040c6b30080cf50009300320026
:101760006540400080cf50008b003a008f0037006a
:1017700030c7b30080cf50001a00320007003c0091
:101780006440500080cf5000110032000040e8005b
:1017900080cf500080003a000f00370050c7b300e0
:1017a00080cf5000800032006340400080cf500066
:1017b00079003a0009003700000028000d48a30016
:1017c00001003a000001200080867600d3ff370038
:1017d0000d60a000750037000d50a0000d70a00036
:1017e000720037000fbe97004c0078008cbf9f003e
:1017f000000478000000e00001003a0008472500de
:101800008004eb00010037008104e80089007800c3
:10181000088044001004e000fbff3a003fb097004e
:101820000000e00003003200890f50000100310089
:10183000800478008000eb00e1af9f004fb197007b
:10184000890f51000200360009005100e0af9f00ef
:101850004368de00e10660001b003a000d067800d8
:1018600009003700ffb09700000220006602070061
:10187000e10f400003003200afb197008301e800a0
:10188000a3b79f000c06e8006faa9700840f5600cc
:10189000f4ff3a008082eb00e5af9f000a003700ba
:1018a000880078003100fb0001047800ffb0970049
:1018b00055020700e10f4000030032002fb69700e9
:1018c0000c06e800acb79f000900e900800478002e
:1018d000e10f4000f2ff3a000006eb000d00e000cf
:1018e0000a003a00c6013700ffb09700000220004e
:1018f00045020700e10f4000030032002fb09700bf
:101900000000e800a0b79f000c06e800efa89700d1
:10191000810f5600f4ff3a00b90137000fb9970064
:101920004200780082bf9f00cf80de000101780076
:10193000820178000205be000004be000203be0062
:101940000002be004822de00482edd0004027600c0
:10195000e4d79f000d48a3000a0032000404e00011
:1019600008003200e14f42000600320071fd2f00f6
:1019700001804700044878001840980029002000a2
:1019800002003700f0d79f001900200072fd2f00e1
:1019900002844700a1ff370063fd2f000384470046
:1019a000190020009dff37000d0cb3000d007800da
:1019b000000cb20028003a000d00e00005003d00d8
:1019c0000fba97004405be004404be0084bf9f00c8
:1019d000140037000d48a3000b0032008fba9700a7
:1019e0004500be0085bf9f004f89de00cf91de001d
:1019f0000002be0002037800820378000605be00e4
:101a00000404be00070037000fbe97004c007800aa
:101a10008cbf9f0000047800cfc4de000905780069
:101a20008a057800e00f5400e08f5c00e00f5d0055
:101a3000e08f5d001f003d003d00b3006000b80076
:101a40006011b80008045000898458000a05590044
:101a50008b855900170037000d00e00005003d00a0
:101a60000fb897004005be004004be0080bf9f0035
:101a7000100037000d48a300070032000fba97008e
:101a80004400be0084bf9f006011b8000205be0084
:101a90000004be00070037008fba970045007800a9
:101aa00085bf9f0000047800090020000a00200084
:101ab0000b0020003fb697000c00e00007003a0042
:101ac000e00f5400e08f5c00e00f5d00e08f5d00f0
:101ad00002003a0010002000b0b79f008d0078008f
:101ae000010cb200e1b79f0000042000808f50007d
:101af0003000320003003c000100e000080032002a
:101b000040003700000820006fb19700800f51009f
:101b100014003200000c2000800f510039003a0000
:101b200014c0b300c52025000b0037000400fb00e3
:101b30004300dd00050040005001be004000be0033
:101b40000040e10001c8e10002d0e10003d8e1005b
:101b50002b0039000442e800f44f5200f3ff3a0032
:101b60002700370000012000010020006011b800ac
:101b700014c0b3000040e10001c8e10002d0e10060
:101b800003d8e1001e003900450020000000d0000d
:101b90008180d2000281d2008381d2008502e900d7
:101ba000faff3a000442e800f04f5200f1ff3a0019
:101bb0001300370080002000010020006011b800f1
:101bc00014c0b3000040e10001c8e10002d0e10010
:101bd00003d8e1000a0039003c0020000000d000da
:101be0008180d2000281d2008381d2000c06e900fc
:101bf000faff3a000442e800f54f5200f1ff3a00c4
:101c0000e4d79f00efd097000100fb003fb19700a1
:101c1000820f500002003d00e2d79f000400370011
:101c2000bfb19700808f510001003d00b0b79f0009
:101c30004fb297000400e0000400320063806600a9
:101c4000020032000402e900c4b79f000de8a300bf
:101c50000b003200cfb297003fb697008c8f520036
:101c600003003c000000eb00c0b79f0004003700f9
:101c7000cfb097003fb1970082805000c1b79f005e
:101c8000efd197000300fb000002eb00d4af9f00f0
:101c9000cfb29700808f52000200340000805200c3
:101ca000d0af9f000d28a30036003200e18066000f
:101cb0000d18a3000c003200d00220000100e0004b
:101cc00001003a000080e900ffb097004e010700d4
:101cd000e10f40000e0032002fb697000c06e8001e
:101ce000acb79f000a0037000100e0000800320096
:101cf000ffb097000002200043010700e10f400001
:101d0000030032002fb097000000e800a0b79f004a
:101d1000dfa897000100e0000f0032000006eb0092
:101d2000ffb097000003200037010700e10f4000db
:101d3000030032002fb197000201e800a2b79f0014
:101d40000c06e800dfa99700830f5600f4ff3a0065
:101d50000002eb00d4af9f00bfb297004328dd0024
:101d6000412025000100400090b79f004228dd007f
:101d70006400500080b79f00e32eb800fcaf9f00c6
:101d8000840037005fa897000000e00011003200d7
:101d9000688066000f003a0000067800ffb09700e8
:101da0000002200018010700e10f4000030032008c
:101db000afb097008100e800a1b79f000c06e800d3
:101dc0005fa99700820f5600f4ff3a008001eb00f4
:101dd000d3af9f00e18066000d18a3000c00320015
:101de000d00220000100e00001003a000080e9007c
:101df000ffb0970004010700e10f4000d6ff32005a
:101e00002fb297000402e800a4b79f00d2ff37006a
:101e10000100e000d0ff3200ffb097000002200078
:101e2000f9000700e10f4000cbff3200afb297008e
:101e30008502e800a5b79f00c7ff37000004200017
:101e4000efb09700808f50003200320003003c005a
:101e50000100e000080032003f00370000082000c9
:101e60006fb19700800f510011003200000c20006c
:101e7000800f510038003a009fb197003302be0036
:101e80002303be000800be000a01be0028030700ad
:101e9000a4002000050020006033b8002b030700d9
:101ea00004c3b30004424000e4d79f002a00370077
:101eb00075472500d5b79f000d58a30002003a00d2
:101ec00080482500d0b79f001400200005002000a6
:101ed0006033b8008fb097008100e900050033003f
:101ee0000402d0008582d2000683d2008783d2000c
:101ef000f9ff37000800be000a01be000c0307000e
:101f00006f0060005fb19700000041001040780052
:101f10001000370014002000050020006033b800d6
:101f20008c0178008301e900050033000402d00031
:101f30008582d2000683d2008783d200f9ff370062
:101f40000800be000a01be00f902070067406000f9
:101f50000043b000e0d79f006fd297000400fb0061
:101f6000ffb09700a8000700e10f40000300320017
:101f7000afb297008502e800a5b79f001fb0970099
:101f80006800500090b79f008fb09700e480500029
:101f900081b79f0063065600d0ff2f003fb1970026
:101fa0008010b8007faa9700000042006300500034
:101fb000800f5600a1ff3a000d38a3001000320038
:101fc000dfaa97000500e0000d0034000006eb00da
:101fd000ffb09700000220008b000700e10f4000d7
:101fe000030032002fb097000000e800a0b79f0068
:101ff0000c06e800dfa89700810f5600f4ff3a00b6
:10200000be407800e1d79f000104e0005efd3a0089
:102010002fb097004f0778004f06be004f05be0057
:102020004f04be00ef01b100000006001004b10033
:10203000070035009001b100040034007000b100c9
:10204000030035009001b10001003c0010000500c4
:10205000000005006900e100040035006d00e100aa
:10206000030034000002b10001003200000005004e
:10207000100005001004b100030035009001b1000c
:1020800001003c0010000500000005008000780001
:102090001104b100030035009101b10001003c00c2
:1020a0000050a000000006008000780000c2b300cd
:1020b000010037008100e80011417800804f510095
:1020c000fcff3200e94f5100faff3200d0c2b300ea
:1020d000804f510003003a008100e80014c0b300b3
:1020e000050037000042eb00b0c2b300804f510042
:1020f00001003a008100e8008001eb0005fd2f009f
:1021000004003700ea18b8000200400085014000d2
:102110008100e8001101fb0005004100e90f5000bb
:10212000f8ff36000404e000010032008301ea00f9
:102130000300780000000600881f78000004780083
:10214000b00090000148a30007003a000108a30076
:10215000050032000198a300080032001000900032
:102160000000e00005003200380090000040a000b0
:10217000300498008080eb00200037000190a1001f
:1021800031049800180090000000e00006003400c0
:102190000000e9001004980018007800b080fb00ef
:1021a000000c780006003700380090000068a3009b
:1021b000edff3a00080078008600070080007800f4
:1021c000380090000078a3000c003a00fa8f50000d
:1021d00008003a00280090000000e000e2ff320012
:1021e000180090000000e80010049800180ce900a6
:1021f000ddff3700ed8f5000e2ff32000100780074
:102200004f04780000000600889fbe00000178009f
:1022100001047800b10090000118a30040003200d2
:102220000198a30003003a00180090000000e000ad
:102230003b003a000190a00031049800820478002d
:10224000f90fb200180090000000e00002003a0010
:1022500028009000000c7800ea8f540006003a0035
:10226000380090000078a30003003a00880078004e
:10227000d0002000e4ff0700180290006121b9009f
:1022800058009000e8009000800f5100818f5900a5
:102290000b0032000400e8001004980018007800d9
:1022a00009587800000c780011c0b300404c25009c
:1022b00001487800ea8f5400060032001900370008
:1022c00088007800094078009000070080047800ba
:1022d00014003700380090000088a300110032007d
:1022e00018019000a8009000480090002d01070000
:1022f00098009000810f50000400320038009000d8
:102300000003b300300498008084eb000000eb0071
:102310001004980028009000000c7800010037009d
:102320008084eb00090078004f04be000000060026
:1023300010417800814f5100040032000000e80095
:102340000204e000faff3a000000eb000000060083
:102350000003780001027800e10f40001a0032000b
:10236000310090000008a300170032000098a3007d
:1023700015003a00a10390000700e00012003200af
:10238000910290006129b90051009000e100900095
:10239000800f5100818f59000b003200140078002b
:1023a000870f500002003a00000ae80002003700e0
:1023b0000500e800100298001400e900000a780007
:1023c00006487800010037000083eb000600780023
:1023d000000006000200fa00889fbe008a1f7800f5
:1023e000000478000000eb00100498003800900012
:1023f0008080eb000008a3003f003200404c250025
:102400001004e00010003200c94925002a4a2500c6
:102410001a0078006c0545002010b2002110200041
:10242000810f500002003a00090078007a0007008e
:10243000ec844400004c2500808f5400f4ff3a00e7
:10244000404c25000048eb004800900058019000e7
:102450000200e0000d003a00120498001200200073
:10246000e880570096000700e10f500003003a0093
:102470000ff897008080fb001f00370038009000a5
:102480000040a0003004980012003700a80090001f
:102490008b000700100498000000e00003003200e9
:1024a000e10f40000d003a000300370038009000b3
:1024b0000040a00002003700380090000003b30085
:1024c00030049800a8009000010c78000000eb0098
:1024d000100498008080eb0007003700a8009000ef
:1024e000010c78000000e900100498000100780059
:1024f000b080fb00000c7800010078004f057800e8
:102500004f04be000080fa00000006000200fa003e
:10251000889fbe00a0ff9f0001047800b1009000da
:10252000810478000904b200020032000000fb00c0
:10253000360037000118a30005003a000103b3007c
:1025400031049800190498000080eb002f00370038
:10255000580090000000e00006003a00480090009b
:1025600012002000e68057008e0007001904980032
:1025700024003700280090000000e00008003a0026
:10258000004c250020049800000c7800200020005a
:1025900050049800100498000130a0003104980005
:1025a00018019000a8009000480090007d000700ee
:1025b00028009000000c78000080eb0010049800c8
:1025c00018007800aff8970001587800000c7800e8
:1025d0002ff89700ea4f50000a003a0038009000a8
:1025e0000088a3000700320018019000a8009000a6
:1025f000480090006b00070019049800a8009000a4
:10260000010c7800aff897000100fb004f04be00fa
:102610000080fa0000000600881f7800000478009f
:10262000300090000008a30007003200800078000e
:102630000120b20004003a0011049800a8009000a4
:10264000010c7800170037000018a30019003200b1
:102650000098a30017003200a80090000100e000dd
:1026600014003200180190000200e0001100320056
:10267000480090004b00070098009000810f500028
:1026800003003200380090000003b30030049800cb
:102690000000eb001004980028009000000c780067
:1026a000380090000058a300020032000080eb00c8
:1026b000010037000000eb004f0478000000060026
:1026c0000a00fa00881f7800800178000000e0000e
:1026d00029003a00f0a68200e10f50000800320005
:1026e000802320000000e0000500320004232000c9
:1026f0002523200067232000800178000400370094
:1027000004222000252220006722200083222000ae
:10271000144090000004e000040035008009eb0044
:10272000144090000074a000104298000002eb00da
:102730000c003700130a2000154478006140640043
:1027400002003a008301e900fbff3a000402e800be
:102750009541780061c061000500320017007800e3
:102760008058780004035100820f5200f1ff3a00b4
:10277000060051000800370020002000a0bf9f0085
:10278000b3bf9f00c1bf9f00d2bf9f006c805700a6
:1027900000c0da005fb897004f0478000080fa00ac
:1027a000000006000a00fa0080017800e20f5000e5
:1027b00027003e00f0a68200e10f50000800320022
:1027c000802320000000e0000500320004232000e8
:1027d00025232000462320008001780004003700d4
:1027e00004222000252220004622200083222000ef
:1027f000144090000004e000040035008009eb0064
:10280000144090000074a000104298001540900001
:102810000028a30003003a00154090000024a00007
:10282000904298008001eb000600370015409000b0
:102830000008a300fdff32003100fb00000b780010
:102840008301e800828f5100f8ff3a00080037004a
:1028500030002000b0bf9f00c3bf9f00d1bf9f00ca
:10286000e2bf9f006a80570000c0da006fb997008e
:10287000020078000080fa0000000600020ab90099
:10288000001bb9000200b800810042008100430033
:1028900000000600881f7800000478005001be0088
:1028a0004000be0004004000858048000601490049
:1028b00087814900009cbe000294be000400e10034
:1028c0000588e1000690e1000798e1000200310070
:1028d000680044001008e8004f047800000006007b
:1028e000f4874700889fbe008a9fbe008c9fbe0071
:1028f0008e1f78000205be000004be00d4b79f0002
:10290000e5b79f00f6b79f0087bf9f000000eb0070
:10291000c0b79f00b0b79f00a0b79f0090b79f00bf
:1029200080b79f000d042000bfb097004fb0970004
:10293000000140000000e0000f003d004f08de00f5
:1029400000007100c0b79f004d00070001003d006e
:10295000120020005000070001003d00120020007e
:102960005500070061000700660007000f004000e7
:10297000c8ff0700220037004f08de000006710084
:10298000ccb79f003e00070001003d001200200070
:102990004100070001003d00120020004600070032
:1029a000520007000fb297009fb297002fb3970015
:1029b000bfb39700590007000000520081805a0001
:1029c00002015b0083815b0080b79f0091b79f008d
:1029d000a2b79f00b3b79f000007eb004f000700ae
:1029e0000020e10001a8e10002b0e10003b8e1002d
:1029f000010031001e0020000e005600c0b79f00ed
:102a00004fb297000400e0000700350010002000de
:102a1000010020006011b800080470008984700073
:102a20000a0571008b8571008d06e900beff3a0032
:102a30000400e00003003d00320007000f004000ea
:102a400094ff07004fa897000000e00004003a0040
:102a50000fb497009fb497002fb59700bfb59700ac
:102a60000800be000a01be004f0778004f06be00f6
:102a70004f05be004f04be004f01b100000006002c
:102a80000180400090b79f000001eb008fb09700dd
:102a90000100e000000006000200700090b79f00f7
:102aa0000180400080b79f000001eb00ffa8970065
:102ab0000100e000000006000200700080b79f00e7
:102ac000018040006faa9700cf20de000100700057
:102ad000f0af9f00040242000800be000a01be00e1
:102ae0004f18de000002720000000600e4af9f00f5
:102af0000804440089844c000a054d008b854d0074
:102b0000000006003fb29700cfb297005fb3970076
:102b1000efb3970000fe2f00000006003fb09700c3
:102b2000cfb097005fb19700efb1970000000600ab
:102b3000881f780018002000881f780068ff0700b1
:102b40008f87e9004f04780000000600801feb002b
:102b500063ff07008f87e90000000600889fbe0022
:102b60008a9fbe008c1f78000205be000004be00d4
:102b7000e00f5000e08f5800e00f5900e08f59003f
:102b80000c003d006000b8006011b800080450005f
:102b9000898458000a0559008b8559001c002000c3
:102ba0001f00070008003d00180007000006eb00aa
:102bb000050037000006eb001900070002003d0089
:102bc0000f0007001c0020000800be000a01be0024
:102bd000d7ff07000203be000002be000c00e000a9
:102be00001003200060007000400be000601be001e
:102bf0004f0678004f05be004f04be0000000600df
:102c00006000b8006011b8000000370004025000f6
:102c1000858258000603590087835900000006008a
:102c2000e00f5200e08f5a00e00f5b00e08f5b0086
:102c300000000600889fbe008a9fbe008c1f78009f
:102c40000205be000004be00e00f5000e08f5800f7
:102c5000e00f5900e08f59000a003d006000b80005
:102c60006011b80008045000898458000a05590012
:102c70008b8559001c0020001800070007003d004c
:102c8000050037000006eb001400070003003d00bc
:102c90006000b8006011b800150007000800be0011
:102ca0000a01be00a9ff07000203be000002be0029
:102cb0000c00e000030032006000b8006011b800b2
:102cc0000b0007000400be000601be004f0678009e
:102cd0004f05be004f04be0000000600e00f52008a
:102ce000e08f5a00e00f5b00e08f5b000000060001
:102cf000040250008582580006035900878359005a
:042d000000000600c9
:020000040000fa
:020000040005f5
:045fe000ddff0000e1
:020000040000fa
:020000040005f5
:045fe4003fff00007b
:020000040000fa
:020000040005f5
:045fe8007fff000037
:020000040000fa
:020000040005f5
:045fec005bff000057
:020000040000fa
:020000040005f5
:045ff00078ff000036
:020000040000fa
:020000040005f5
:045ff400cfff0000db
:020000040000fa
:10000800ea54010006550100340300005e55010062
:10001800b655010034030000340300003403000027
:10002800340300003403000034030000ba35010033
:10003800340300003403000034030000ea370100f1
:10004800fe3401003403000034030000b43401001e
:100058001c350100340300003403000034030000a1
:10006800340300003403000034030000103601009c
:10007800340300003403000034030000340300009c
:10008800303601003403000034030000340300005c
:100098003403000034030000340300006835010015
:1000a800340300003403000034030000340300006c
:1000b800340300003403000034030000340300005c
:1000c800340300003403000034030000340300004c
:1000d800340300003403000034030000340300003c
:1000e800340300003403000034030000340300002c
:1000f800340300003403000034030000340300001c
:10010800340300003403000034030000340300000b
:1001180034030000340300003403000034030000fb
:1001280034030000340300003403000034030000eb
:1001380034030000340300003403000034030000db
:1001480034030000340300003403000034030000cb
:1001580034030000340300003403000034030000bb
:1001680034030000340300003403000034030000ab
:10017800340300003403000034030000340300009b
:10018800340300003403000034030000340300008b
:10019800340300003403000034030000340300007b
:1001a800340300003403000034030000340300006b
:1001b800340300003403000034030000340300005b
:1001c800340300003403000034030000340300004b
:1001d800340300003403000034030000340300003b
:1001e800340300003403000034030000340300002b
:1001f800340300003403000034030000340300001b
:10020800340300003403000034030000340300000a
:1002180034030000340300003403000034030000fa
:1002280034030000340300003403000034030000ea
:1002380034030000340300003403000034030000da
:1002480034030000340300003403000034030000ca
:1002580034030000340300003403000034030000ba
:1002680034030000340300003403000034030000aa
:0c027800340300003403000034030000d5
:020000040000fa
:102d04002f6900006e640000657800002e680000e2
:102d1400746d0000006e00006f6e000063650000bb
:102d24003d220000006e0000633d000000630000cf
:102d34006e6f00006e630000653d0000220000001d
:102d440072650000737000006f6e00007365000010
:102d54003d220000004900006e760000616c000016
:102d64006964000020480000545400005020000012
:102d7400526500007175000065730000743a00002c
:102d84002048000054540000505f000056650000c5
:102d940072730000696f00006e3d00003d4e00003c
:102da400554c00004c0d00000a000000485400007f
:102db40054500000004900006e760000616c000071
:102dc40069640000204800005454000050200000b2
:102dd400526500007175000065730000743a0000cc
:102de4002048000054540000505f00005665000065
:102df40072730000696f00006e2100003d480000fe
:102e040054540000500d00000a000000496e0000f8
:102e1400766100006c6900006420000048540000e2
:102e240054500000205200006571000075650000d8
:102e3400737400003a20000052650000736f0000b4
:102e440075720000636500003d3d00004e550000b2
:102e54004c4c00000d0a0000004900006e76000092
:102e6400616c0000696400002048000054540000b4
:102e74005020000052650000717500006573000069
:102e8400743a000020450000727200006f72000066
:102e940020440000656300006f640000696e000058
:102ea40067200000555200004c0d00000a0000008d
:102eb400496e0000766100006c6900006420000027
:102ec4004854000054500000205200006571000076
:102ed40075650000737400003a200000526500001c
:102ee400736f0000757200006365000020540000d9
:102ef4006f6f0000204c00006f6e0000670d000033
:102f04000a000000496e0000766100006c69000050
:102f14006420000048540000545000002052000077
:102f24006571000075650000737400003a200000ac
:102f3400536800006f720000742000004d650000ab
:102f4400746800006f6400000d0a00000047000070
:102f54004554000000500000555400000045000096
:102f640041440000004f000053540000004500009d
:102f740054450000004100004345000000450000a6
:102f840043540000004f00004e530000004900006d
:102f94006e760000616c0000696400002048000047
:102fa4005454000050200000526500007175000068
:102fb40065730000743a0000207500006e6b000019
:102fc4006e6f0000776e0000204d000065740000f5
:102fd400686f0000642000002d20000025730000ad
:102fe4000d0a0000004300006f6e000074650000cd
:102ff4006e7400002d4c0000656e000067740000c4
:10300400683a0000002500002a7300002025000013
:1030140064000000496600002d4e00006f6e000041
:10302400652d00004d61000074630000683a0000e3
:103034000041000075740000686f000072690000b0
:103044007a610000746900006f6e00003a000000ad
:103054002020000020250000643a000020530000d6
:10306400656e000064340000303400005f4e0000e0
:103074006f740000466f0000756e0000642e00003f
:103084002e2e00000048000054540000502f000071
:10309400312e0000312000003430000034200000c4
:1030a4004e6f000074200000466f0000756e000033
:1030b400640d00000a4300006f6e00006e6500009e
:1030c40063740000696f00006e3a0000204b00003a
:1030d40065650000702d0000416c000069760000f9
:1030e400650d00000a4300006f6e00007465000067
:1030f4006e7400002d4c0000656e000067740000c3
:10310400683a0000203000000d0a00000d0a00009b
:10311400002500007300000046610000696c000097
:10312400656400000d0a0000004f00004b0d000014
:103134000a0000002020000020250000643a00005e
:1031440020530000656e0000643400003035000038
:103154005f4d000065740000686f0000644e00005d
:103164006f740000416c00006c6f00007765000014
:10317400642e00002e2e000000480000545400006d
:10318400502f0000312e00003120000034300000a8
:10319400352000004d650000746800006f64000075
:1031a400204e00006f740000204100006c6c000091
:1031b4006f770000656400000d0a0000436f000093
:1031c4006e6e000065630000746900006f6e00009d
:1031d4003a2000004b650000657000002d4100009e
:1031e4006c690000766500000d0a0000436f000062
:1031f4006e740000656e0000742d00004c650000c4
:103204006e670000746800003a200000300d000072
:103214000a4100006c6c00006f7700003a20000047
:10322400257300000d0a00000d0a000000200000b4
:1032340020200000256400003a20000053650000af
:103244006e64000035300000305f0000496e0000fd
:1032540074650000726e0000616c0000536500002c
:10326400727600006572000045720000726f000003
:10327400722e00002e2e000000480000545400005e
:10328400502f0000312e00003120000035300000a6
:1032940030200000496e000074650000726e00006a
:1032a400616c000020530000657200007665000028
:1032b4007220000045720000726f0000720d000061
:1032c4000a4300006f6e00006e6500006374000026
:1032d400696f00006e3a0000204b00006565000035
:1032e400702d0000416c000069760000650d00003f
:1032f4000a4300006f6e0000746500006e740000e5
:103304002d4c0000656e000067740000683a0000f0
:1033140020250000640d00000a0d00000a250000ad
:10332400730000002020000020250000643a000003
:1033340020530000656e0000643500003031000049
:103344005f4e00006f740000496d0000706c000057
:10335400656d0000656e000074650000642e000059
:103364002e2e00000048000054540000502f00008e
:10337400312e0000312000003530000031200000e3
:103384004e6f000074200000496d0000706c000056
:10339400656d0000656e000074650000640d00003a
:1033a4000a4300006f6e00006e6500006374000045
:1033b400696f00006e3a0000204b00006565000054
:1033c400702d0000416c000069760000650d00005e
:1033d4000a4300006f6e0000746500006e74000004
:1033e4002d4c0000656e000067740000683a000010
:1033f400203000000d0a00000d0a0000002000002b
:1034040020200000256400003a20000053650000dd
:103414006e64000032300000305f00004f4b00004b
:103424005f530000696d0000706c0000652e0000a1
:103434002e2e00000048000054540000502f0000bd
:10344400312e000031200000323000003020000016
:103454004f4b00000d0a0000436f00006e6e000029
:1034640065630000746900006f6e00003a2000007c
:103474004b650000657000002d4100006c69000080
:10348400766500000d0a0000436f00006e740000b2
:10349400656e0000742d00004c6500006e6700002e
:1034a400746800003a200000300d00000a0d00008e
:1034b4000a0000002020000020250000643a0000db
:1034c40020530000656e00006432000030300000bc
:1034d4005f4f00004b5f0000446100007461000016
:1034e4002e2e00002e4c0000656e00006774000054
:1034f400683d0000256400000048000054540000aa
:10350400502f0000312e0000312000003230000026
:10351400302000004f4b00000d0a0000436f0000f4
:103524006e6e000065630000746900006f6e000039
:103534003a2000004b650000657000002d4100003a
:103544006c690000766500000d0a0000436f0000fe
:103554006e740000656e0000742d00005479000044
:10356400706500003a20000061700000706c00007b
:103574006963000061740000696f00006e2f000031
:103584006f63000074650000742d00007374000004
:1035940072650000616d00000d0a0000436f0000b9
:1035a4006e740000656e0000742d00004c65000010
:1035b4006e670000746800003a200000256900006e
:1035c4000d0a00000d0a0000002000002020000069
:1035d400256400003a200000536500006e6400007a
:1035e40032300000305f00004f4b00005f5300009a
:1035f4006d6100006c6c00004d730000672e0000cc
:103604002e2e00000048000054540000502f0000eb
:10361400312e000031200000323000003020000044
:103624004f4b00000d0a0000436f00006e6e000057
:1036340065630000746900006f6e00003a200000aa
:103644004b650000657000002d4100006c690000ae
:10365400766500000d0a0000436f00006e740000e0
:10366400656e0000742d00004c6500006e6700005c
:10367400746800003a200000256900000d0a00006b
:103684000d0a000025730000002000002020000027
:10369400256400003a200000536500006e640000b9
:1036a40033300000345f00004e6f0000744d0000a2
:1036b4006f6400006966000069650000642e000004
:1036c4002e2e00000048000054540000502f00002b
:1036d400312e00003120000033300000342000007f
:1036e4004e6f0000742000004d6f000064690000fc
:1036f40066690000656400000d0a00004361000073
:1037040063680000652d0000436f00006e740000c4
:10371400726f00006c3a0000206d000061780000b8
:103724002d610000676500003d3600003030000068
:103734000d0a000045540000616700003a200000b3
:1037440022250000732200000d0a0000436f0000d0
:103754006e6e000065630000746900006f6e000007
:103764003a2000004b650000657000002d41000008
:103774006c690000766500000d0a00000d0a000067
:103784000020000020200000256400003a200000f2
:10379400536500006e64000034300000315f0000a7
:1037a400556e000061740000686f000072690000cb
:1037b4007a650000642e00002e2e00005374000071
:1037c400616c0000653d000025730000207c000052
:1037d400206e00006f6e0000636500003d25000050
:1037e400730d00000a00000048540000545000000b
:1037f4002f3100002e310000203400003031000051
:10380400205500006e61000075740000686f0000b0
:10381400726900007a650000640d00000a57000018
:10382400575700002d4100007574000068650000c2
:103834006e7400006963000061740000653a000062
:1038440020440000696700006573000074200000d4
:1038540072650000616c00006d3d000022250000cf
:10386400732200002c200000716f0000703d0000e6
:103874002261000075740000682200002c20000002
:103884006e6f00006e630000653d0000222500009d
:10389400732200002c20000073740000616c00008f
:1038a400653d0000257300000d0a0000436f000011
:1038b4006e740000656e0000742d000054790000e1
:1038c400706500003a200000746500007874000000
:1038d4002f680000746d00006c0d00000a430000a6
:1038e4006f6e0000746500006e7400002d4c0000c3
:1038f400656e000067740000683a00002031000023
:10390400303000000d0a0000436f00006e6e0000ae
:1039140065630000746900006f6e00003a200000c7
:103924004b650000657000002d4100006c690000cb
:10393400766500000d0a00000d0a00003c2100001d
:10394400444f00004354000059500000452000003b
:10395400687400006d6c00003e3c00006874000058
:103964006d6c00003e3c000068650000616400006e
:103974003e3c000074690000746c0000653e000069
:1039840045720000726f0000723c00002f7400004a
:10399400697400006c6500003e3c00002f68000064
:1039a40065610000643e00003c6200006f6400003a
:1039b400793e00003c680000313e000034300000d5
:1039c40031200000556e000061750000746800002d
:1039d4006f720000697a0000656400002e3c0000ec
:1039e4002f680000313e00003c2f0000626f000091
:1039f400647900003e3c00002f680000746d0000f4
:103a04006c3e000000250000303200007800000009
:103a1400545200005545000000460000414c00008f
:103a240053450000004e00006f2000004672000065
:103a34006565000020530000656300007572000096
:103a44006974000079200000436f00006e74000068
:103a54006578000074730000204100007265000066
:103a64002041000076610000696c00006162000082
:103a74006c6500002e2000005472000079200000c4
:103a840061670000616900006e2000006c61000045
:103a940074650000722e00002e2e00000044000009
:103aa400454c00004554000045000000004400005f
:103ab400696700006965000073740000204100001c
:103ac40075740000686f0000726900007a6100007c
:103ad400746900006f6e00002053000074610000e0
:103ae400727400003a20000052650000714e00001c
:103af4006f6e0000636500003d250000730d00003b
:103b04000a00000020200000204600006169000037
:103b14006c650000643a00002053000074610000ea
:103b24006c6500000d0a0000002000002020000049
:103b340046610000696c0000656400003a200000e2
:103b4400556e0000616200006c6500002074000086
:103b54006f200000666900006e64000020430000ce
:103b6400545800000d0a000000250000733a0000bc
:103b740025730000007200006177000048410000d6
:103b8400323d000025730000202000006d64000019
:103b940035480000413200003d250000730d00004f
:103ba4000a000000257300003a250000733a000063
:103bb400257300003a250000733a00006175000087
:103bc400746800003a250000730000007261000070
:103bd4007752000065730000706f00006e73000080
:103be400653d0000257300000d0a0000006d000013
:103bf4006435000052650000737000006f6e0000b1
:103c0400736500003d250000730d00000a000000ec
:103c14007265000071750000657300007420000077
:103c240052650000737000006f6e00007365000041
:103c34003d250000730d00000a0000006d610000c6
:103c440074630000682100000d0a000000460000b3
:103c5400414900004c2100000d0a00000041000011
:103c6400636300006573000073200000746f00003c
:103c7400207400006869000073200000696e000071
:103c84007465000072660000616300006520000036
:103c940069730000207200006573000074720000f4
:103ca4006963000065640000207400006f20000058
:103cb400436f00006e6600006967000075720000c3
:103cc40061740000696f00006e2000004d6f0000f9
:103cd40064650000204f00006e6c00007900000055
:103ce40052650000736f0000757200006365000088
:103cf40020690000732000004e5500004c4c000069
:103d040000250000643a000020440000454c0000f7
:103d14004554000045200000466900006c65000021
:103d2400202d000020520000657300006f75000014
:103d340072630000653d000022250000732200002c
:103d44000d0a000000450000525200004f520000ce
:103d54003a200000556e0000616200006c650000ae
:103d6400207400006f200000444500004c45000012
:103d74005445000020460000696c0000652e0000d8
:103d84002020000052450000533d00002573000030
:103d9400002000002020000020250000730d0000fa
:103da4000a0000006f66000066730000657400007e
:103db400002500006400000045720000726f0000de
:103dc400722000004f6600006673000065740000f6
:103dd4002077000061730000206900006e76000007
:103de400616c0000696400003a2000006f66000006
:103df40066730000657400003d2200002573000016
:103e04002200000069730000666900006e61000012
:103e14006c0000006f76000065720000777200008d
:103e24006974000065000000636f00006e74000098
:103e3400656e0000740000005061000072610000b3
:103e44006d650000746500007220000027630000a7
:103e54006f6e0000746500006e740000272000007f
:103e6400697300002072000065710000756900002c
:103e74007265000064000000556e0000616200007d
:103e84006c650000207400006f2000006465000071
:103e9400636f00006465000020620000617300002d
:103ea4006536000034200000436f00006e7400008b
:103eb400656e0000742e00002e2e000000500000dd
:103ec4005554000020460000696c0000653a00006b
:103ed400204f0000766500007277000072690000d0
:103ee400746500003d250000622000004973000055
:103ef400466900006e6100006c3d00002562000010
:103f0400204f00006666000073650000743d0000e9
:103f1400257500006c200000436f00006e740000e3
:103f2400656e0000744c0000656e0000677400004c
:103f3400683d00002569000020460000696c00000f
:103f4400656e0000616d0000653d000027250000de
:103f5400732700002e2e00002e0d00000a00000022
:103f6400556e0000616200006c6500002074000062
:103f74006f2000006372000065610000746500003a
:103f840020460000696c0000653a000020450000ee
:103f9400727200006f7200003d2500007300000083
:103fa40045720000726f000072200000536500002b
:103fb400656b0000696e0000672000004669000020
:103fc4006c6500003a20000072650000733d00003b
:103fd40025640000005500006e610000626c000062
:103fe40065200000746f0000205700007269000013
:103ff40074650000204500007175000069700000c0
:104004006d6500006e74000020500000726f0000a7
:10401400666900006c6500003a20000045720000eb
:10402400726f0000723d000025730000005500000f
:104034006e610000626c000065200000746f000077
:1040440020550000706400006174000065200000c9
:104054004c6500006e67000074680000206f00006b
:1040640066200000466900006c6500003a200000ec
:1040740045720000726f0000723d0000257300005d
:1040840000480000544d00000074000065780000f2
:10409400742f0000687400006d6c0000004a00007a
:1040a40050470000006900006d6100006765000072
:1040b4002f6a000070650000670000004749000097
:1040c40046000000696d000061670000652f000074
:1040d40067690000660000005449000046000000c3
:1040e400696d000061670000652f000074690000bd
:1040f4006666000000430000535300000074000093
:1041040065780000742f00006373000073000000e2
:104114002e4a00005300000074650000787400000b
:104124002f6a000061760000617300006372000072
:10413400697000007400000054580000540000002e
:1041440074650000787400002f7000006c6100003a
:10415400696e0000005000004e4700000069000036
:104164006d610000676500002f7000006e6700003d
:1041740000610000707000006c6900006361000061
:10418400746900006f6e00002f6f000063740000fc
:10419400657400002d7300007472000065610000f6
:1041a4006d000000256400003a200000474500002f
:1041b40054200000466900006c6500002052000095
:1041c400657300006f75000072630000653d0000b8
:1041d40022250000732200000d0a000000200000c8
:1041e40020200000466900006c650000204e00009d
:1041f4006f740000204600006f7500006e640000bc
:104204000d0a00000020000020200000526500007c
:10421400717500006573000074200000486100009f
:10422400732000004e6f0000204500005441000040
:10423400470d00000a00000025300000347800001b
:104244000020000020200000466900006c6500008a
:10425400204500002d540000616700003d2500004a
:104264007320000052650000717500006573000042
:1042740074200000452d000054610000673d0000db
:10428400257300000d0a000000250000732e0000b5
:10429400677a0000006700007a690000700000007f
:1042a40069640000656e00007469000074790000a0
:1042b4000020000020200000436f00006e74000006
:1042c400656e0000742d0000456e0000636f0000f1
:1042d400646900006e6700003a2000002573000046
:1042e4000d0a000000450000727200006f720000a9
:1042f40020530000656500006b6900006e670000d4
:1043040020460000696c0000652000002573000051
:1043140020520000455300003d250000730d0000ad
:104324000a0000002020000020250000730d00007a
:104334000a000000436f00006e740000656e000008
:10434400742d00004c6500006e6700007468000066
:104354003d250000756c00000d0a000000480000b7
:1043640054540000502f0000312e00003120000072
:1043740032300000302000004f4b00000d0a0000d6
:10438400436f00006e6e00006563000074690000f6
:104394006f6e00003a2000004b650000657000005d
:1043a4002d4100006c690000766500000d0a0000d4
:1043b4004361000063680000652d0000436f000046
:1043c4006e740000726f00006c3a0000206d0000f3
:1043d400617800002d610000676500003d32000037
:1043e4003539000032300000303000000d0a000082
:1043f40045540000616700003a20000022250000b7
:10440400732200000d0a0000436f00006e74000068
:10441400656e0000742d0000547900007065000082
:104424003a200000257300000d0a0000436f0000cd
:104434006e740000656e0000742d0000456e00006f
:10444400636f0000646900006e6700003a2000009a
:10445400257300000d0a0000436f00006e74000015
:10446400656e0000742d00004c6500006e6700004e
:10447400746800003a200000257500006c0d0000ef
:104484000a0d00000a000000202000002020000087
:10449400202000005374000072650000616d00006c
:1044a400696e000067200000317300007420000072
:1044b40043680000756e00006b3a000000200000a5
:1044c400536900007a6500003d250000756c00000a
:1044d4002e2e00002e540000726900006767000051
:1044e4006572000020530000656e000064690000de
:1044f4006e6700002e2e00002e0d00000a00000042
:104504002020000020200000202000005374000020
:1045140072650000616d0000696e00006720000094
:104524004e45000058540000204300006875000008
:104534006e6b00003a00000020530000697a00000e
:10454400653d0000257500006c2e00002e2e000035
:1045540000570000616900007420000050720000e0
:104564006576000020540000582e00002e2e000016
:10457400005400004350000020530000656e00000a
:104584006420000045720000726f0000720d00008c
:104594000a0000004f4b00002e2e00002e54000095
:1045a4007269000067670000657200002053000014
:1045b400656e0000640d00000a0000002020000069
:1045c40020200000202000005761000069740000d2
:1045d400204c0000415300005420000054580000b7
:1045e4002e2e00002e000000544300005020000036
:1045f400536500006e6400002045000072720000e4
:104604006f72000020250000730d00000a000000f6
:1046140020200000204500004e44000020470000f8
:104624004554000020460000696c0000650d000040
:104634000a000000534500004355000052450000a5
:104644000041000074740000656d00007074000087
:10465400656400002041000063630000657300008e
:1046640073200000746f00002053000045430000d5
:1046740055520000452100000d0a0000004d0000c5
:1046840065740000686f0000642000004e6f000035
:1046940074200000496d0000706c0000656d00001e
:1046a400656e000074650000643a00002043000059
:1046b400686100006e6e0000656c00003d2500001e
:1046c400640d00000a0000002f6100007069000002
:1046d4002f0000004d650000746800006f64000046
:1046e400204e00006f740000204100006c6c00003c
:1046f4006f770000656400003a2000004368000002
:10470400616e00006e6500006c3d000025640000d1
:104714000d0a000000470000455400002c20000052
:1047240050550000542c000020440000454c00006b
:10473400455400004500000070720000666c0000e3
:10474400696e0000737400006c69000073740000eb
:10475400696e0000672e00002573000000690000e8
:104764006e730000742e0000257300002e000000fc
:10477400257300000d0a000000500000726f000055
:10478400666900006c6500004c69000073740000e9
:10479400696e0000672e0000747800007400000049
:1047a40070720000666c00002e000000466f00006e
:1047b400756e0000643a000020250000730d0000af
:1047c4000a0000004571000075690000706d00006a
:1047d400656e000074500000726f0000666900008e
:1047e4006c6500004c69000073740000696e000081
:1047f400672e0000747800007400000065710000ea
:1048040075690000702e00000065000063680000f8
:104814006f00000047450000543a00002059000092
:104824006f7500002053000061690000643a0000c5
:10483400252e00002a73000000500000555400008b
:104844003a200000596f00007520000053610000f9
:10485400696400003a2500002e2a0000730000005d
:104864006e6100006d650000002f00007072000092
:10487400666c00002e250000730000002f5000001d
:10488400726f0000666900006c6500004c690000ee
:1048940073740000696e0000672e000074780000d5
:1048a4007400000069730000666900006e61000016
:1048b4006c0000006f7600006572000077720000e3
:1048c40069740000650000006f66000066730000f4
:1048d40065740000002500006400000045720000bb
:1048e400726f0000722000004f66000066730000c3
:1048f40065740000207700006173000020690000e7
:104904006e760000616c0000696400003a200000cb
:104914006f66000066730000657400003d220000ad
:104924002573000022000000636800006b73000020
:10493400756d000000250000750000004572000040
:10494400726f000072200000636800006b73000047
:10495400756d0000206300006f7500006c6400003a
:10496400206e00006f74000020700000617200006f
:10497400736500003a200000636800006b73000058
:10498400756d00003d220000257300002200000028
:10499400636f00006e740000656e00007400000018
:1049a400517500006572000079200000506100001c
:1049b400726100006d6500007465000072200000e3
:1049c40027630000686b0000737500006d2700000a
:1049d4002077000061730000206e00006f740000f7
:1049e40020700000726f00007669000064650000aa
:1049f400642e00000050000061720000616d000030
:104a0400657400006572000020270000636f0000d9
:104a14006e740000656e00007427000020690000b9
:104a24007320000072650000717500006972000057
:104a340065640000004200006173000065360000f8
:104a4400344300006f6e0000746500006e74000053
:104a5400204c0000656e000067740000683d000093
:104a64002564000020560000616c0000756500009c
:104a74003d270000252e00002a730000270d0000aa
:104a84000a00000025730000005500006e6100005c
:104a9400626c000065200000746f00002064000058
:104aa400656300006f64000065200000626100001f
:104ab4007365000036340000204300006f6e000070
:104ac400746500006e7400002e2e00002e0000009d
:104ad40044650000636f000064650000642000000a
:104ae4004c6500006e670000746800003d250000fe
:104af400690d00000a0000004368000065630000bf
:104b04006b730000756d000073200000446f00009b
:104b1400204e00004f540000206d0000617400001e
:104b2400636800003a2000004163000074750000cf
:104b3400616c00003d2500007520000045780000f0
:104b44007065000063740000656400003d2500008a
:104b540075000000517500006572000079200000a6
:104b640050610000726100006d6500007465000012
:104b740072200000276e0000616d000065270000b0
:104b84002077000061730000206e00006f74000045
:104b940020700000726f00007669000064650000f8
:104ba400642e000000700000726600006c2e00008d
:104bb4002573000000450000727200006f7200004f
:104bc400204300007265000061740000696e0000fb
:104bd40067200000507200006f660000696c0000de
:104be40065200000466900006c6500003a20000062
:104bf40072650000733d000025640000004500005c
:104c0400727200006f72000020530000656500009e
:104c14006b6900006e67000020500000726f000096
:104c2400666900006c65000020460000696c0000a5
:104c3400653a000020720000657300003d25000005
:104c44006400000045720000726f000072200000d2
:104c54005772000069740000696e0000672000004c
:104c6400507200006f660000696c0000652000004f
:104c7400466900006c6500003a200000726500007f
:104c8400733d00002564000000460000696e0000ca
:104c9400616c0000697a0000696e00006720000002
:104ca400557000006c6f0000616400002e2e00003f
:104cb4002e0d00000a00000045720000726f000013
:104cc40072200000557000006461000074690000e7
:104cd4006e67000020500000726f000066690000db
:104ce4006c65000020460000696c0000652000002f
:104cf4004c6500006e670000746800003a200000f4
:104d040072650000733d000025640000004500004a
:104d1400727200006f72000020500000726f000079
:104d2400666900006c6500002069000073200000c3
:104d3400436f00007272000075700000743a000046
:104d440020720000657300003d250000642c000003
:104d5400204d0000736700003d2200002573000011
:104d6400220d00000a000000436f00006e74000072
:104d7400726f00006c6c0000657200002069000016
:104d8400732000006e6f000074200000494400008e
:104d94004c450000004300006f6e00007472000078
:104da4006f6c00006c6500007220000069730000e5
:104db400206e00006f74000020720000756e000009
:104dc4006e6900006e670000206100002070000022
:104dd400726f0000666900006c65000000690000e5
:104de4006e730000746100006e63000065000000d3
:104df400256c000075000000696e000073740000eb
:104e0400616e0000636500002070000061720000a4
:104e1400616d000065740000657200002069000087
:104e240073200000696e0000636f0000727200005e
:104e340065630000740000002f6900006e730000b9
:104e4400742e0000257300002e2500003038000069
:104e54006c7800000050000061730000736900006a
:104e64006e670000207400006f200000476500009a
:104e7400745f0000466900006c6500002052000069
:104e8400657300006f75000072630000653d0000eb
:104e9400257300000d0a0000002f0000707200004e
:104ea400666c0000696e0000737400006c69000099
:104eb40073740000696e0000672e00002573000003
:104ec400002f0000747200006e6400002e250000a4
:104ed400732e000025300000386c000078000000bc
:104ee40047450000545f0000746500006d700000c9
:104ef4006572000061740000757200006520000096
:104f0400757200006c50000061720000616d000059
:104f140065740000657200003d250000730d0000fb
:104f24000a000000707200006f620000650000005b
:104f3400256400000d0a000000250000640d000037
:104f44000a250000640d00000a0000006c620000e5
:104f54006262000049620000496200006261000070
:104f6400694900006c4900006c61000000430000c6
:104f74006f6e0000747200006f6c00006c650000be
:104f8400722000006973000020720000756e00003a
:104f94006e6900006e670000206100002070000050
:104fa400726f0000666900006c6500002e2e000020
:104fb4002e00000073650000747000006f6900002b
:104fc4006e74000000450000727200006f720000f1
:104fd4003a2000002773000065740000706f000021
:104fe400696e00007427000020690000732000002f
:104ff400696e0000766100006c69000064000000c6
:1050040045720000726f0000723a00002027000011
:1050140073650000747000006f6900006e74000016
:105024002720000069730000206e00006f740000e8
:1050340020700000726f0000766900006465000053
:105044006400000075730000657200006e6100006a
:105054006d6500000075000073650000726e00004d
:10506400616d00006520000069730000206e00007f
:105074006f74000020700000726f000076690000f9
:1050840064650000642000006f7200002069000065
:10509400732000006f7500007473000069640000e1
:1050a400652000006f660000206200006f7500003c
:1050b4006e640000732e00002e2e000000700000ad
:1050c40061730000737700006f72000064000000d9
:1050d4007061000073730000776f00007264000059
:1050e40020690000732000006e6f0000742000002f
:1050f400707200006f76000069640000656400004f
:10510400206f00007220000069730000206f00000f
:10511400757400007369000064650000206f00006e
:1051240066200000626f0000756e0000647300006a
:105134002e2e00002e000000556e0000616200005b
:105144006c650000207400006f20000055700000a2
:105154006461000074650000204300007265000073
:10516400646500006e740000696100006c730000e7
:105174002e2e00002e000000257300003a250000aa
:10518400733a000025730000002000002020000076
:105194005570000064610000746900006e670000cf
:1051a4002043000072650000646500006e74000016
:1051b400696100006c7300003a20000022250000a1
:1051c4007322000000500000555400005f5400009a
:1051d400696d000065200000757200006c500000cd
:1051e40061720000616d000065740000657200006a
:1051f4003d250000730d00000a00000074690000e2
:105204006d650000006300006f6e000066690000b9
:10521400726d0000006b0000696c00006c6300009c
:1052240066670000006300006f6e0000666900009e
:10523400726d0000206d0000757300007420000082
:1052440062650000203d0000202700006b6900001b
:105254006c6c0000636600006727000000500000cb
:10526400555400005f570000696600006943000060
:105274006f6e000066690000672000007572000010
:105284006c50000061720000616d000065740000e4
:10529400657200003d250000730d00000a00000047
:1052a4006d6f000064650000005300004f4600006d
:1052b400545f0000415000000053000054410000be
:1052c400544900004f4e0000006d00006f64000060
:1052d4006520000070610000726100006d650000cf
:1052e40074650000722000006973000020630000f0
:1052f400616e00002062000065200000275300005a
:105304004f460000545f0000415000002720000079
:105314006f72000020270000535400004154000025
:10532400494f00004e270000206f00006e6c000003
:105334007900000063680000616e00006e65000083
:105344006c00000063680000616e00006e65000080
:105354006c20000070610000726100006d65000047
:105364007465000072200000697300002069000069
:105374006e6300006f7200007265000063740000c9
:1053840000630000686100006e6e0000656c000040
:105394002070000061720000616d000065740000ff
:1053a4006572000020690000732000006f75000022
:1053b400742000006f660000206200006f7500001a
:1053c4006e64000073200000283100002d310000bd
:1053d40032290000006500006e630000727900004d
:1053e40070740000696f00006e00000041550000f9
:1053f400544800005f4f0000504500004e0000007c
:1054040041550000544800005f570000504100001f
:105414005f500000534b0000004100005554000051
:10542400485f000057500000413200005f50000008
:10543400534b0000006d00006f6400006520000005
:1054440070610000726100006d6500007465000009
:10545400722000006973000020630000616e000088
:105464002062000065200000274100005554000020
:10547400485f00004f500000454e00002720000008
:105484006f720000202700004155000054480000be
:105494005f570000504100005f500000534b000074
:1054a400272000006f7200002027000041550000f3
:1054b400544800005f57000050410000325f000074
:1054c400505300004b270000206f00006e6c00005a
:1054d4007900000073730000696400000055000047
:1054e4006e610000626c000065200000746f0000b3
:1054f400207300006176000065200000636f0000e7
:105504006e66000069670000757200006174000037
:10551400696f00006e00000050550000545f0000e9
:105524005265000073740000617200007420000072
:10553400757200006c50000061720000616d000023
:1055440065740000657200003d250000730d0000c5
:105554000a000000726500007374000061720000ac
:1055640074000000636f00006e6600006972000042
:105574006d2000006d75000073740000206200004f
:10558400652000003d2000002772000065730000c4
:105594007461000072740000270000005055000080
:1055a400545f0000466f0000726d000061740000db
:1055b40020750000726c00005061000072610000f0
:1055c4006d65000074650000723d000025730000e5
:1055d4000d0a0000006600006f7200006d6100009b
:1055e40074000000636f00006e66000069720000c2
:1055f4006d2000006d7500007374000020620000cf
:10560400652000003d200000276600006f72000046
:105614006d610000742700000074000068650000dc
:10562400202700006e6100006d6500002720000047
:1056340070610000726100006d6500007465000017
:10564400722000006d750000737400002062000079
:1056540065200000707200006f760000696400002d
:1056640065640000206100006e6400002069000091
:10567400732000006c6900006d690000746500000f
:1056840064200000746f0000203100002d360000fb
:105694003420000063680000617200006163000050
:1056a40074650000727300002e0000006571000034
:1056b40075690000702e000025730000004500008d
:1056c40071750000697000006d6500006e74000063
:1056d40020500000726f0000666900006c650000d5
:1056e4002044000061740000612000004c6500004b
:1056f4006e670000746800002069000073200000d9
:105704006f750000742000006f66000020620000c6
:105714006f7500006e640000732e000020450000c9
:10572400787000006563000074650000643d00004b
:1057340025690000005500006e610000626c0000e5
:1057440065200000746f0000206300007265000093
:105754006174000065200000457100007569000057
:10576400706d0000656e000074200000507200002f
:105774006f660000696c0000653a00002045000077
:10578400727200006f7200003d250000730000007b
:1057940045720000726f0000722000005365000023
:1057a400656b0000696e0000672000004571000011
:1057b40075690000706d0000656e000074200000c3
:1057c400507200006f660000696c000065200000e4
:1057d400466900006c6500003a2000007265000014
:1057e400733d000025640000005500006e61000058
:1057f400626c000065200000746f000020570000f8
:105804007269000074650000204500007175000095
:10581400697000006d6500006e7400002050000087
:10582400726f0000666900006c6500003a20000099
:1058340045720000726f0000723d00002573000085
:10584400005500006e610000626c000065200000dd
:10585400746f000020550000706400006174000043
:10586400652000004c6500006e670000746800004d
:10587400206f00006620000045710000756900007b
:10588400706d0000656e000074200000507200000e
:105894006f660000696c0000653a00002045000056
:1058a400727200006f7200003d250000730000005a
:1058b4002f65000071750000697000002e2500003e
:1058c400730000002f45000071750000697000002e
:1058d4006d6500006e740000507200006f66000079
:1058e400696c0000654c0000697300007469000075
:1058f4006e6700002e7400007874000000540000ed
:10590400726900006d20000046610000696c0000af
:105914006564000020520000657300003d2700000c
:105924002573000027000000747200006e640000fc
:105934002e250000732e000025300000386c000076
:105944007800000045720000726f0000723a000097
:10595400205500006e610000626c000065200000ac
:10596400746f000020640000656c00006574000022
:105974006520000054720000656e00006420000081
:1059840052650000636f0000726400003a2000005a
:1059940072650000733d0000272500007327000096
:1059a400006900006e730000742e0000257300006f
:1059b4002e250000303800006c78000000450000ff
:1059c400727200006f7200003a200000556e0000f1
:1059d400616200006c650000207400006f2000000c
:1059e400646500006c6500007465000020490000d7
:1059f4006e730000746100006e6300006520000097
:105a040052650000636f0000726400003a200000d9
:105a140072650000733d0000272500007327000015
:105a240000450000727200006f7200003a2000000e
:105a3400276900006e730000746100006e6300004b
:105a440065270000206900007320000072650000d3
:105a54007175000072690000656400000045000073
:105a6400727200006f7200003a200000276e00007e
:105a7400616d0000652700002069000073200000ac
:105a840072650000717500007269000065640000b1
:105a940000740000726e0000642e00002573000084
:105aa4002e00000045720000726f0000722000009a
:105ab400446500006c650000746900006e670000b6
:105ac40020500000726f0000666900006c650000e1
:105ad40020720000657300003d270000257300005c
:105ae4002700000045720000726f00007220000061
:105af400446500006c650000746900006e67000076
:105b04002045000071750000697000006d6500009b
:105b14006e74000020500000726f0000666900007f
:105b24006c65000020720000657300003d270000d2
:105b340025730000270000007061000072610000fe
:105b44006d6500007465000072200000276f00007e
:105b540076650000727700007269000074650000c9
:105b640027200000697300002072000065710000a6
:105b74007569000072650000640000007061000037
:105b8400726100006d650000746500007220000001
:105b9400276f00006666000073650000742700002c
:105ba4002069000073200000726500007175000018
:105bb400697200006564000000460000697200001c
:105bc4006d77000061720000652000004c650000e4
